{
  "_format": "hh-sol-artifact-1",
  "contractName": "DocManager",
  "sourceName": "contracts/DocManager.sol",
  "abi": [
    {
      "anonymous": false,
      "inputs": [
        {
          "indexed": true,
          "internalType": "uint256",
          "name": "docId",
          "type": "uint256"
        },
        {
          "indexed": true,
          "internalType": "address",
          "name": "grantedAddress",
          "type": "address"
        }
      ],
      "name": "DocumentAccessGranted",
      "type": "event"
    },
    {
      "anonymous": false,
      "inputs": [
        {
          "indexed": true,
          "internalType": "uint256",
          "name": "docId",
          "type": "uint256"
        },
        {
          "indexed": true,
          "internalType": "address",
          "name": "revokedAddress",
          "type": "address"
        }
      ],
      "name": "DocumentAccessRevoked",
      "type": "event"
    },
    {
      "anonymous": false,
      "inputs": [
        {
          "indexed": true,
          "internalType": "uint256",
          "name": "docId",
          "type": "uint256"
        },
        {
          "indexed": false,
          "internalType": "string",
          "name": "title",
          "type": "string"
        },
        {
          "indexed": true,
          "internalType": "address",
          "name": "issuer",
          "type": "address"
        }
      ],
      "name": "DocumentCreated",
      "type": "event"
    },
    {
      "anonymous": false,
      "inputs": [
        {
          "indexed": true,
          "internalType": "uint256",
          "name": "docId",
          "type": "uint256"
        },
        {
          "indexed": true,
          "internalType": "address",
          "name": "issuer",
          "type": "address"
        },
        {
          "indexed": true,
          "internalType": "address",
          "name": "issuedTo",
          "type": "address"
        }
      ],
      "name": "DocumentIssued",
      "type": "event"
    },
    {
      "anonymous": false,
      "inputs": [
        {
          "indexed": true,
          "internalType": "address",
          "name": "userAddress",
          "type": "address"
        },
        {
          "indexed": false,
          "internalType": "string",
          "name": "username",
          "type": "string"
        },
        {
          "indexed": false,
          "internalType": "bool",
          "name": "isOrganization",
          "type": "bool"
        }
      ],
      "name": "UserCreated",
      "type": "event"
    },
    {
      "inputs": [
        {
          "internalType": "string",
          "name": "_title",
          "type": "string"
        },
        {
          "internalType": "string",
          "name": "_contentId",
          "type": "string"
        }
      ],
      "name": "createDocument",
      "outputs": [],
      "stateMutability": "nonpayable",
      "type": "function"
    },
    {
      "inputs": [
        {
          "internalType": "string",
          "name": "_username",
          "type": "string"
        },
        {
          "internalType": "bool",
          "name": "_isOrganization",
          "type": "bool"
        }
      ],
      "name": "createUser",
      "outputs": [],
      "stateMutability": "nonpayable",
      "type": "function"
    },
    {
      "inputs": [
        {
          "internalType": "uint256",
          "name": "_docId",
          "type": "uint256"
        }
      ],
      "name": "getDocumentAccessList",
      "outputs": [
        {
          "internalType": "address[]",
          "name": "",
          "type": "address[]"
        }
      ],
      "stateMutability": "view",
      "type": "function"
    },
    {
      "inputs": [
        {
          "internalType": "uint256",
          "name": "_docId",
          "type": "uint256"
        }
      ],
      "name": "getDocumentDetails",
      "outputs": [
        {
          "internalType": "uint256",
          "name": "docId",
          "type": "uint256"
        },
        {
          "internalType": "string",
          "name": "title",
          "type": "string"
        },
        {
          "internalType": "address",
          "name": "issuer",
          "type": "address"
        },
        {
          "internalType": "address",
          "name": "issuedTo",
          "type": "address"
        }
      ],
      "stateMutability": "view",
      "type": "function"
    },
    {
      "inputs": [],
      "name": "getMyDetails",
      "outputs": [
        {
          "internalType": "string",
          "name": "name",
          "type": "string"
        },
        {
          "internalType": "bool",
          "name": "isOrg",
          "type": "bool"
        }
      ],
      "stateMutability": "view",
      "type": "function"
    },
    {
      "inputs": [],
      "name": "getMyDocs",
      "outputs": [
        {
          "internalType": "uint256[]",
          "name": "",
          "type": "uint256[]"
        }
      ],
      "stateMutability": "view",
      "type": "function"
    },
    {
      "inputs": [
        {
          "internalType": "uint256",
          "name": "_docId",
          "type": "uint256"
        },
        {
          "internalType": "address",
          "name": "_to",
          "type": "address"
        }
      ],
      "name": "grantAccess",
      "outputs": [],
      "stateMutability": "nonpayable",
      "type": "function"
    },
    {
      "inputs": [
        {
          "internalType": "uint256",
          "name": "_docId",
          "type": "uint256"
        },
        {
          "internalType": "address",
          "name": "_user",
          "type": "address"
        }
      ],
      "name": "issue",
      "outputs": [],
      "stateMutability": "nonpayable",
      "type": "function"
    },
    {
      "inputs": [
        {
          "internalType": "uint256",
          "name": "_docId",
          "type": "uint256"
        },
        {
          "internalType": "address",
          "name": "_from",
          "type": "address"
        }
      ],
      "name": "revokeAccess",
      "outputs": [],
      "stateMutability": "nonpayable",
      "type": "function"
    },
    {
      "inputs": [
        {
          "internalType": "string",
          "name": "_cid",
          "type": "string"
        },
        {
          "internalType": "address",
          "name": "_userid",
          "type": "address"
        }
      ],
      "name": "verify",
      "outputs": [
        {
          "internalType": "address",
          "name": "issuedBy",
          "type": "address"
        },
        {
          "internalType": "address",
          "name": "issuedTo",
          "type": "address"
        },
        {
          "internalType": "string",
          "name": "title",
          "type": "string"
        }
      ],
      "stateMutability": "view",
      "type": "function"
    }
  ],
  "bytecode": "0x608060405234801561000f575f80fd5b506123b88061001d5f395ff3fe608060405234801561000f575f80fd5b506004361061009c575f3560e01c806386584e271161006457806386584e271461017057806393ebc4c81461018c578063b696a6ad146101a8578063d9a5ec1b146101c4578063f30aa777146101e05761009c565b80630b6abe8b146100a0578063431bbb7e146100d057806365dd152c146100ef578063684024fb1461010b57806380ede3291461013d575b5f80fd5b6100ba60048036038101906100b591906114c6565b6101fe565b6040516100c791906115d8565b60405180910390f35b6100d861033e565b6040516100e692919061169c565b60405180910390f35b610109600480360381019061010491906116f4565b610529565b005b6101256004803603810190610120919061185e565b610684565b604051610134939291906118c7565b60405180910390f35b610157600480360381019061015291906114c6565b61082a565b6040516101679493929190611912565b60405180910390f35b61018a60048036038101906101859190611986565b610a44565b005b6101a660048036038101906101a191906119e0565b610c13565b005b6101c260048036038101906101bd91906116f4565b610e07565b005b6101de60048036038101906101d991906116f4565b61105f565b005b6101e8611329565b6040516101f59190611b0d565b60405180910390f35b6060813373ffffffffffffffffffffffffffffffffffffffff165f808381526020019081526020015f206004015f9054906101000a900473ffffffffffffffffffffffffffffffffffffffff1673ffffffffffffffffffffffffffffffffffffffff16146102a1576040517f08c379a000000000000000000000000000000000000000000000000000000000815260040161029890611b9d565b60405180910390fd5b5f808481526020019081526020015f2060050180548060200260200160405190810160405280929190818152602001828054801561033157602002820191905f5260205f20905b815f9054906101000a900473ffffffffffffffffffffffffffffffffffffffff1673ffffffffffffffffffffffffffffffffffffffff16815260200190600101908083116102e8575b5050505050915050919050565b60605f8073ffffffffffffffffffffffffffffffffffffffff1660015f3373ffffffffffffffffffffffffffffffffffffffff1673ffffffffffffffffffffffffffffffffffffffff1681526020019081526020015f205f015f9054906101000a900473ffffffffffffffffffffffffffffffffffffffff1673ffffffffffffffffffffffffffffffffffffffff160361040d576040517f08c379a000000000000000000000000000000000000000000000000000000000815260040161040490611c05565b60405180910390fd5b60015f3373ffffffffffffffffffffffffffffffffffffffff1673ffffffffffffffffffffffffffffffffffffffff1681526020019081526020015f20600101805461045890611c50565b80601f016020809104026020016040519081016040528092919081815260200182805461048490611c50565b80156104cf5780601f106104a6576101008083540402835291602001916104cf565b820191905f5260205f20905b8154815290600101906020018083116104b257829003601f168201915b5050505050915060015f3373ffffffffffffffffffffffffffffffffffffffff1673ffffffffffffffffffffffffffffffffffffffff1681526020019081526020015f206002015f9054906101000a900460ff1690509091565b813373ffffffffffffffffffffffffffffffffffffffff165f808381526020019081526020015f206004015f9054906101000a900473ffffffffffffffffffffffffffffffffffffffff1673ffffffffffffffffffffffffffffffffffffffff16146105ca576040517f08c379a00000000000000000000000000000000000000000000000000000000081526004016105c190611b9d565b60405180910390fd5b5f808481526020019081526020015f2060050182908060018154018082558091505060019003905f5260205f20015f9091909190916101000a81548173ffffffffffffffffffffffffffffffffffffffff021916908373ffffffffffffffffffffffffffffffffffffffff1602179055508173ffffffffffffffffffffffffffffffffffffffff16837fd91c50e8c21e68792869114f2a9f39ff547b09197b4d5ff27a57ac8055db538360405160405180910390a3505050565b5f8060605f5b60015f8673ffffffffffffffffffffffffffffffffffffffff1673ffffffffffffffffffffffffffffffffffffffff1681526020019081526020015f20600301805490508110156108225785805190602001205f808381526020019081526020015f206002016040516106fd9190611d1c565b604051809103902003610815575f808281526020019081526020015f206003015f9054906101000a900473ffffffffffffffffffffffffffffffffffffffff1693505f808281526020019081526020015f206004015f9054906101000a900473ffffffffffffffffffffffffffffffffffffffff1692505f808281526020019081526020015f20600101805461079290611c50565b80601f01602080910402602001604051908101604052809291908181526020018280546107be90611c50565b80156108095780601f106107e057610100808354040283529160200191610809565b820191905f5260205f20905b8154815290600101906020018083116107ec57829003601f168201915b50505050509150610822565b808060010191505061068a565b509250925092565b5f60605f80843373ffffffffffffffffffffffffffffffffffffffff165f808381526020019081526020015f206003015f9054906101000a900473ffffffffffffffffffffffffffffffffffffffff1673ffffffffffffffffffffffffffffffffffffffff1614806108f957503373ffffffffffffffffffffffffffffffffffffffff165f808381526020019081526020015f206004015f9054906101000a900473ffffffffffffffffffffffffffffffffffffffff1673ffffffffffffffffffffffffffffffffffffffff16145b8061090a575061090933826113bd565b5b610949576040517f08c379a000000000000000000000000000000000000000000000000000000000815260040161094090611da2565b60405180910390fd5b5f805f8881526020019081526020015f209050805f0154955080600101805461097190611c50565b80601f016020809104026020016040519081016040528092919081815260200182805461099d90611c50565b80156109e85780601f106109bf576101008083540402835291602001916109e8565b820191905f5260205f20905b8154815290600101906020018083116109cb57829003601f168201915b50505050509450806003015f9054906101000a900473ffffffffffffffffffffffffffffffffffffffff169350806004015f9054906101000a900473ffffffffffffffffffffffffffffffffffffffff16925050509193509193565b5f73ffffffffffffffffffffffffffffffffffffffff1660015f3373ffffffffffffffffffffffffffffffffffffffff1673ffffffffffffffffffffffffffffffffffffffff1681526020019081526020015f205f015f9054906101000a900473ffffffffffffffffffffffffffffffffffffffff1673ffffffffffffffffffffffffffffffffffffffff1614610b10576040517f08c379a0000000000000000000000000000000000000000000000000000000008152600401610b0790611e0a565b60405180910390fd5b5f60015f3373ffffffffffffffffffffffffffffffffffffffff1673ffffffffffffffffffffffffffffffffffffffff1681526020019081526020015f20905033815f015f6101000a81548173ffffffffffffffffffffffffffffffffffffffff021916908373ffffffffffffffffffffffffffffffffffffffff16021790555082816001019081610ba29190611fc5565b5081816002015f6101000a81548160ff0219169083151502179055503373ffffffffffffffffffffffffffffffffffffffff167f7cff5daa5da88efbfb7faed0f4447f1f0abca8a7fd629cd317eed1f28df3603c8484604051610c0692919061169c565b60405180910390a2505050565b60015f3373ffffffffffffffffffffffffffffffffffffffff1673ffffffffffffffffffffffffffffffffffffffff1681526020019081526020015f206002015f9054906101000a900460ff16610c9f576040517f08c379a0000000000000000000000000000000000000000000000000000000008152600401610c9690612104565b60405180910390fd5b5f4233604051602001610cb3929190612187565b604051602081830303815290604052805190602001205f1c90505f805f8381526020019081526020015f20905081815f018190555083816001019081610cf99190611fc5565b5082816002019081610d0b9190611fc5565b5033816003015f6101000a81548173ffffffffffffffffffffffffffffffffffffffff021916908373ffffffffffffffffffffffffffffffffffffffff16021790555060015f3373ffffffffffffffffffffffffffffffffffffffff1673ffffffffffffffffffffffffffffffffffffffff1681526020019081526020015f2060030182908060018154018082558091505060019003905f5260205f20015f90919091909150553373ffffffffffffffffffffffffffffffffffffffff16827f5f0a17619d345853660d0544e8bab0797520ac2c4e6164ea0209a662418ddbfe86604051610df991906121b2565b60405180910390a350505050565b813373ffffffffffffffffffffffffffffffffffffffff165f808381526020019081526020015f206003015f9054906101000a900473ffffffffffffffffffffffffffffffffffffffff1673ffffffffffffffffffffffffffffffffffffffff1614610ea8576040517f08c379a0000000000000000000000000000000000000000000000000000000008152600401610e9f90612242565b60405180910390fd5b825f73ffffffffffffffffffffffffffffffffffffffff165f808381526020019081526020015f206004015f9054906101000a900473ffffffffffffffffffffffffffffffffffffffff1673ffffffffffffffffffffffffffffffffffffffff1614610f49576040517f08c379a0000000000000000000000000000000000000000000000000000000008152600401610f40906122aa565b60405180910390fd5b60015f8473ffffffffffffffffffffffffffffffffffffffff1673ffffffffffffffffffffffffffffffffffffffff1681526020019081526020015f2060030184908060018154018082558091505060019003905f5260205f20015f9091909190915055825f808681526020019081526020015f206004015f6101000a81548173ffffffffffffffffffffffffffffffffffffffff021916908373ffffffffffffffffffffffffffffffffffffffff1602179055508273ffffffffffffffffffffffffffffffffffffffff163373ffffffffffffffffffffffffffffffffffffffff16857f264a2fcff58f980486245f7d5ca8bb277eda06b4af67e6776dec93e02faf78a060405160405180910390a450505050565b813373ffffffffffffffffffffffffffffffffffffffff165f808381526020019081526020015f206004015f9054906101000a900473ffffffffffffffffffffffffffffffffffffffff1673ffffffffffffffffffffffffffffffffffffffff1614611100576040517f08c379a00000000000000000000000000000000000000000000000000000000081526004016110f790611b9d565b60405180910390fd5b5f5b5f808581526020019081526020015f2060050180549050811015611323578273ffffffffffffffffffffffffffffffffffffffff165f808681526020019081526020015f20600501828154811061115c5761115b6122c8565b5b905f5260205f20015f9054906101000a900473ffffffffffffffffffffffffffffffffffffffff1673ffffffffffffffffffffffffffffffffffffffff1603611316575f808581526020019081526020015f2060050160015f808781526020019081526020015f20600501805490506111d59190612322565b815481106111e6576111e56122c8565b5b905f5260205f20015f9054906101000a900473ffffffffffffffffffffffffffffffffffffffff165f808681526020019081526020015f206005018281548110611233576112326122c8565b5b905f5260205f20015f6101000a81548173ffffffffffffffffffffffffffffffffffffffff021916908373ffffffffffffffffffffffffffffffffffffffff1602179055505f808581526020019081526020015f2060050180548061129b5761129a612355565b5b600190038181905f5260205f20015f6101000a81549073ffffffffffffffffffffffffffffffffffffffff021916905590558273ffffffffffffffffffffffffffffffffffffffff16847fcfa6693db7bf2b76fb8370cbe67199b4775f49b876c7f656c1f385bdb677bf5960405160405180910390a3611323565b8080600101915050611102565b50505050565b606060015f3373ffffffffffffffffffffffffffffffffffffffff1673ffffffffffffffffffffffffffffffffffffffff1681526020019081526020015f206003018054806020026020016040519081016040528092919081815260200182805480156113b357602002820191905f5260205f20905b81548152602001906001019080831161139f575b5050505050905090565b5f805f90505b5f808481526020019081526020015f2060050180549050811015611477578373ffffffffffffffffffffffffffffffffffffffff165f808581526020019081526020015f20600501828154811061141d5761141c6122c8565b5b905f5260205f20015f9054906101000a900473ffffffffffffffffffffffffffffffffffffffff1673ffffffffffffffffffffffffffffffffffffffff160361146a57600191505061147c565b80806001019150506113c3565b505f90505b92915050565b5f604051905090565b5f80fd5b5f80fd5b5f819050919050565b6114a581611493565b81146114af575f80fd5b50565b5f813590506114c08161149c565b92915050565b5f602082840312156114db576114da61148b565b5b5f6114e8848285016114b2565b91505092915050565b5f81519050919050565b5f82825260208201905092915050565b5f819050602082019050919050565b5f73ffffffffffffffffffffffffffffffffffffffff82169050919050565b5f6115438261151a565b9050919050565b61155381611539565b82525050565b5f611564838361154a565b60208301905092915050565b5f602082019050919050565b5f611586826114f1565b61159081856114fb565b935061159b8361150b565b805f5b838110156115cb5781516115b28882611559565b97506115bd83611570565b92505060018101905061159e565b5085935050505092915050565b5f6020820190508181035f8301526115f0818461157c565b905092915050565b5f81519050919050565b5f82825260208201905092915050565b5f5b8381101561162f578082015181840152602081019050611614565b5f8484015250505050565b5f601f19601f8301169050919050565b5f611654826115f8565b61165e8185611602565b935061166e818560208601611612565b6116778161163a565b840191505092915050565b5f8115159050919050565b61169681611682565b82525050565b5f6040820190508181035f8301526116b4818561164a565b90506116c3602083018461168d565b9392505050565b6116d381611539565b81146116dd575f80fd5b50565b5f813590506116ee816116ca565b92915050565b5f806040838503121561170a5761170961148b565b5b5f611717858286016114b2565b9250506020611728858286016116e0565b9150509250929050565b5f80fd5b5f80fd5b7f4e487b71000000000000000000000000000000000000000000000000000000005f52604160045260245ffd5b6117708261163a565b810181811067ffffffffffffffff8211171561178f5761178e61173a565b5b80604052505050565b5f6117a1611482565b90506117ad8282611767565b919050565b5f67ffffffffffffffff8211156117cc576117cb61173a565b5b6117d58261163a565b9050602081019050919050565b828183375f83830152505050565b5f6118026117fd846117b2565b611798565b90508281526020810184848401111561181e5761181d611736565b5b6118298482856117e2565b509392505050565b5f82601f83011261184557611844611732565b5b81356118558482602086016117f0565b91505092915050565b5f80604083850312156118745761187361148b565b5b5f83013567ffffffffffffffff8111156118915761189061148f565b5b61189d85828601611831565b92505060206118ae858286016116e0565b9150509250929050565b6118c181611539565b82525050565b5f6060820190506118da5f8301866118b8565b6118e760208301856118b8565b81810360408301526118f9818461164a565b9050949350505050565b61190c81611493565b82525050565b5f6080820190506119255f830187611903565b8181036020830152611937818661164a565b905061194660408301856118b8565b61195360608301846118b8565b95945050505050565b61196581611682565b811461196f575f80fd5b50565b5f813590506119808161195c565b92915050565b5f806040838503121561199c5761199b61148b565b5b5f83013567ffffffffffffffff8111156119b9576119b861148f565b5b6119c585828601611831565b92505060206119d685828601611972565b9150509250929050565b5f80604083850312156119f6576119f561148b565b5b5f83013567ffffffffffffffff811115611a1357611a1261148f565b5b611a1f85828601611831565b925050602083013567ffffffffffffffff811115611a4057611a3f61148f565b5b611a4c85828601611831565b9150509250929050565b5f81519050919050565b5f82825260208201905092915050565b5f819050602082019050919050565b611a8881611493565b82525050565b5f611a998383611a7f565b60208301905092915050565b5f602082019050919050565b5f611abb82611a56565b611ac58185611a60565b9350611ad083611a70565b805f5b83811015611b00578151611ae78882611a8e565b9750611af283611aa5565b925050600181019050611ad3565b5085935050505092915050565b5f6020820190508181035f830152611b258184611ab1565b905092915050565b7f4f6e6c792074686520726563697069656e742063616e20706572666f726d20745f8201527f68697320616374696f6e00000000000000000000000000000000000000000000602082015250565b5f611b87602a83611602565b9150611b9282611b2d565b604082019050919050565b5f6020820190508181035f830152611bb481611b7b565b9050919050565b7f55736572206e6f742072656769737465726564000000000000000000000000005f82015250565b5f611bef601383611602565b9150611bfa82611bbb565b602082019050919050565b5f6020820190508181035f830152611c1c81611be3565b9050919050565b7f4e487b71000000000000000000000000000000000000000000000000000000005f52602260045260245ffd5b5f6002820490506001821680611c6757607f821691505b602082108103611c7a57611c79611c23565b5b50919050565b5f81905092915050565b5f819050815f5260205f209050919050565b5f8154611ca881611c50565b611cb28186611c80565b9450600182165f8114611ccc5760018114611ce157611d13565b60ff1983168652811515820286019350611d13565b611cea85611c8a565b5f5b83811015611d0b57815481890152600182019150602081019050611cec565b838801955050505b50505092915050565b5f611d278284611c9c565b915081905092915050565b7f596f7520646f206e6f7420686176652061636365737320746f207468697320645f8201527f6f63756d656e7400000000000000000000000000000000000000000000000000602082015250565b5f611d8c602783611602565b9150611d9782611d32565b604082019050919050565b5f6020820190508181035f830152611db981611d80565b9050919050565b7f5573657220616c726561647920657869737473000000000000000000000000005f82015250565b5f611df4601383611602565b9150611dff82611dc0565b602082019050919050565b5f6020820190508181035f830152611e2181611de8565b9050919050565b5f819050815f5260205f209050919050565b5f6020601f8301049050919050565b5f82821b905092915050565b5f60088302611e847fffffffffffffffffffffffffffffffffffffffffffffffffffffffffffffffff82611e49565b611e8e8683611e49565b95508019841693508086168417925050509392505050565b5f819050919050565b5f611ec9611ec4611ebf84611493565b611ea6565b611493565b9050919050565b5f819050919050565b611ee283611eaf565b611ef6611eee82611ed0565b848454611e55565b825550505050565b5f90565b611f0a611efe565b611f15818484611ed9565b505050565b5b81811015611f3857611f2d5f82611f02565b600181019050611f1b565b5050565b601f821115611f7d57611f4e81611e28565b611f5784611e3a565b81016020851015611f66578190505b611f7a611f7285611e3a565b830182611f1a565b50505b505050565b5f82821c905092915050565b5f611f9d5f1984600802611f82565b1980831691505092915050565b5f611fb58383611f8e565b9150826002028217905092915050565b611fce826115f8565b67ffffffffffffffff811115611fe757611fe661173a565b5b611ff18254611c50565b611ffc828285611f3c565b5f60209050601f83116001811461202d575f841561201b578287015190505b6120258582611faa565b86555061208c565b601f19841661203b86611e28565b5f5b828110156120625784890151825560018201915060208501945060208101905061203d565b8683101561207f578489015161207b601f891682611f8e565b8355505b6001600288020188555050505b505050505050565b7f4f6e6c79206f7267616e697a6174696f6e732063616e20697373756520646f635f8201527f756d656e74730000000000000000000000000000000000000000000000000000602082015250565b5f6120ee602683611602565b91506120f982612094565b604082019050919050565b5f6020820190508181035f83015261211b816120e2565b9050919050565b5f819050919050565b61213c61213782611493565b612122565b82525050565b5f8160601b9050919050565b5f61215882612142565b9050919050565b5f6121698261214e565b9050919050565b61218161217c82611539565b61215f565b82525050565b5f612192828561212b565b6020820191506121a28284612170565b6014820191508190509392505050565b5f6020820190508181035f8301526121ca818461164a565b905092915050565b7f4f6e6c7920746865206973737565722063616e20706572666f726d20746869735f8201527f20616374696f6e00000000000000000000000000000000000000000000000000602082015250565b5f61222c602783611602565b9150612237826121d2565b604082019050919050565b5f6020820190508181035f83015261225981612220565b9050919050565b7f5468697320646f63756d656e7420697320616c726561647920697373756564005f82015250565b5f612294601f83611602565b915061229f82612260565b602082019050919050565b5f6020820190508181035f8301526122c181612288565b9050919050565b7f4e487b71000000000000000000000000000000000000000000000000000000005f52603260045260245ffd5b7f4e487b71000000000000000000000000000000000000000000000000000000005f52601160045260245ffd5b5f61232c82611493565b915061233783611493565b925082820390508181111561234f5761234e6122f5565b5b92915050565b7f4e487b71000000000000000000000000000000000000000000000000000000005f52603160045260245ffdfea2646970667358221220136ed5758e0374ef80bb99a6f5b165f8ff159265f750284b542d311218b95b6e64736f6c63430008160033",
  "linkReferences": {},
  "deployedLinkReferences": {}
}