{
  "_format": "hh-sol-artifact-1",
  "contractName": "DocManager",
  "sourceName": "contracts/DocManager.sol",
  "abi": [
    {
      "anonymous": false,
      "inputs": [
        {
          "indexed": true,
          "internalType": "uint256",
          "name": "docId",
          "type": "uint256"
        },
        {
          "indexed": false,
          "internalType": "string",
          "name": "title",
          "type": "string"
        },
        {
          "indexed": true,
          "internalType": "address",
          "name": "issuer",
          "type": "address"
        }
      ],
      "name": "DocumentCreated",
      "type": "event"
    },
    {
      "anonymous": false,
      "inputs": [
        {
          "indexed": true,
          "internalType": "uint256",
          "name": "docId",
          "type": "uint256"
        },
        {
          "indexed": true,
          "internalType": "address",
          "name": "issuer",
          "type": "address"
        },
        {
          "indexed": true,
          "internalType": "address",
          "name": "issuedTo",
          "type": "address"
        }
      ],
      "name": "DocumentIssued",
      "type": "event"
    },
    {
      "anonymous": false,
      "inputs": [
        {
          "indexed": true,
          "internalType": "address",
          "name": "userAddress",
          "type": "address"
        },
        {
          "indexed": false,
          "internalType": "string",
          "name": "username",
          "type": "string"
        },
        {
          "indexed": false,
          "internalType": "bool",
          "name": "isOrganization",
          "type": "bool"
        }
      ],
      "name": "UserCreated",
      "type": "event"
    },
    {
      "inputs": [
        {
          "internalType": "string",
          "name": "_title",
          "type": "string"
        },
        {
          "internalType": "string",
          "name": "_contentId",
          "type": "string"
        }
      ],
      "name": "createDocument",
      "outputs": [],
      "stateMutability": "nonpayable",
      "type": "function"
    },
    {
      "inputs": [
        {
          "internalType": "string",
          "name": "_username",
          "type": "string"
        },
        {
          "internalType": "bool",
          "name": "_isOrganization",
          "type": "bool"
        }
      ],
      "name": "createUser",
      "outputs": [],
      "stateMutability": "nonpayable",
      "type": "function"
    },
    {
      "inputs": [
        {
          "internalType": "uint256",
          "name": "_docId",
          "type": "uint256"
        }
      ],
      "name": "getDocumentAccessList",
      "outputs": [
        {
          "internalType": "address[]",
          "name": "",
          "type": "address[]"
        }
      ],
      "stateMutability": "view",
      "type": "function"
    },
    {
      "inputs": [
        {
          "internalType": "uint256",
          "name": "_docId",
          "type": "uint256"
        }
      ],
      "name": "getDocumentDetails",
      "outputs": [
        {
          "internalType": "uint256",
          "name": "docId",
          "type": "uint256"
        },
        {
          "internalType": "string",
          "name": "title",
          "type": "string"
        },
        {
          "internalType": "address",
          "name": "issuer",
          "type": "address"
        },
        {
          "internalType": "address",
          "name": "issuedTo",
          "type": "address"
        }
      ],
      "stateMutability": "view",
      "type": "function"
    },
    {
      "inputs": [],
      "name": "getMyDetails",
      "outputs": [
        {
          "internalType": "string",
          "name": "name",
          "type": "string"
        },
        {
          "internalType": "bool",
          "name": "isOrg",
          "type": "bool"
        }
      ],
      "stateMutability": "view",
      "type": "function"
    },
    {
      "inputs": [],
      "name": "getMyDocs",
      "outputs": [
        {
          "components": [
            {
              "internalType": "uint256",
              "name": "docId",
              "type": "uint256"
            },
            {
              "internalType": "string",
              "name": "title",
              "type": "string"
            },
            {
              "internalType": "string",
              "name": "cid",
              "type": "string"
            },
            {
              "internalType": "address",
              "name": "issuedTo",
              "type": "address"
            }
          ],
          "internalType": "struct DocManager.DocRet[]",
          "name": "",
          "type": "tuple[]"
        }
      ],
      "stateMutability": "view",
      "type": "function"
    },
    {
      "inputs": [
        {
          "internalType": "uint256",
          "name": "_docId",
          "type": "uint256"
        },
        {
          "internalType": "address",
          "name": "_to",
          "type": "address"
        }
      ],
      "name": "grantAccess",
      "outputs": [],
      "stateMutability": "nonpayable",
      "type": "function"
    },
    {
      "inputs": [
        {
          "internalType": "uint256",
          "name": "_docId",
          "type": "uint256"
        },
        {
          "internalType": "address",
          "name": "_user",
          "type": "address"
        }
      ],
      "name": "issue",
      "outputs": [],
      "stateMutability": "nonpayable",
      "type": "function"
    },
    {
      "inputs": [
        {
          "internalType": "uint256",
          "name": "_docId",
          "type": "uint256"
        },
        {
          "internalType": "address",
          "name": "_from",
          "type": "address"
        }
      ],
      "name": "revokeAccess",
      "outputs": [],
      "stateMutability": "nonpayable",
      "type": "function"
    },
    {
      "inputs": [
        {
          "internalType": "string",
          "name": "_cid",
          "type": "string"
        },
        {
          "internalType": "address",
          "name": "_userid",
          "type": "address"
        }
      ],
      "name": "verify",
      "outputs": [
        {
          "internalType": "address",
          "name": "issuedBy",
          "type": "address"
        },
        {
          "internalType": "address",
          "name": "issuedTo",
          "type": "address"
        },
        {
          "internalType": "string",
          "name": "title",
          "type": "string"
        }
      ],
      "stateMutability": "view",
      "type": "function"
    }
  ],
  "bytecode": "0x608060405234801561000f575f80fd5b5061273e8061001d5f395ff3fe608060405234801561000f575f80fd5b506004361061009c575f3560e01c806386584e271161006457806386584e271461017057806393ebc4c81461018c578063b696a6ad146101a8578063d9a5ec1b146101c4578063f30aa777146101e05761009c565b80630b6abe8b146100a0578063431bbb7e146100d057806365dd152c146100ef578063684024fb1461010b57806380ede3291461013d575b5f80fd5b6100ba60048036038101906100b5919061178a565b6101fe565b6040516100c7919061189c565b60405180910390f35b6100d861033e565b6040516100e6929190611960565b60405180910390f35b610109600480360381019061010491906119b8565b610529565b005b61012560048036038101906101209190611b22565b610640565b60405161013493929190611b8b565b60405180910390f35b6101576004803603810190610152919061178a565b6107e6565b6040516101679493929190611bd6565b60405180910390f35b61018a60048036038101906101859190611c4a565b610a00565b005b6101a660048036038101906101a19190611ca4565b610bcf565b005b6101c260048036038101906101bd91906119b8565b610dc3565b005b6101de60048036038101906101d991906119b8565b61101b565b005b6101e86112a1565b6040516101f59190611e93565b60405180910390f35b6060813373ffffffffffffffffffffffffffffffffffffffff165f808381526020019081526020015f206004015f9054906101000a900473ffffffffffffffffffffffffffffffffffffffff1673ffffffffffffffffffffffffffffffffffffffff16146102a1576040517f08c379a000000000000000000000000000000000000000000000000000000000815260040161029890611f23565b60405180910390fd5b5f808481526020019081526020015f2060050180548060200260200160405190810160405280929190818152602001828054801561033157602002820191905f5260205f20905b815f9054906101000a900473ffffffffffffffffffffffffffffffffffffffff1673ffffffffffffffffffffffffffffffffffffffff16815260200190600101908083116102e8575b5050505050915050919050565b60605f8073ffffffffffffffffffffffffffffffffffffffff1660015f3373ffffffffffffffffffffffffffffffffffffffff1673ffffffffffffffffffffffffffffffffffffffff1681526020019081526020015f205f015f9054906101000a900473ffffffffffffffffffffffffffffffffffffffff1673ffffffffffffffffffffffffffffffffffffffff160361040d576040517f08c379a000000000000000000000000000000000000000000000000000000000815260040161040490611f8b565b60405180910390fd5b60015f3373ffffffffffffffffffffffffffffffffffffffff1673ffffffffffffffffffffffffffffffffffffffff1681526020019081526020015f20600101805461045890611fd6565b80601f016020809104026020016040519081016040528092919081815260200182805461048490611fd6565b80156104cf5780601f106104a6576101008083540402835291602001916104cf565b820191905f5260205f20905b8154815290600101906020018083116104b257829003601f168201915b5050505050915060015f3373ffffffffffffffffffffffffffffffffffffffff1673ffffffffffffffffffffffffffffffffffffffff1681526020019081526020015f206002015f9054906101000a900460ff1690509091565b813373ffffffffffffffffffffffffffffffffffffffff165f808381526020019081526020015f206004015f9054906101000a900473ffffffffffffffffffffffffffffffffffffffff1673ffffffffffffffffffffffffffffffffffffffff16146105ca576040517f08c379a00000000000000000000000000000000000000000000000000000000081526004016105c190611f23565b60405180910390fd5b5f808481526020019081526020015f2060050182908060018154018082558091505060019003905f5260205f20015f9091909190916101000a81548173ffffffffffffffffffffffffffffffffffffffff021916908373ffffffffffffffffffffffffffffffffffffffff160217905550505050565b5f8060605f5b60015f8673ffffffffffffffffffffffffffffffffffffffff1673ffffffffffffffffffffffffffffffffffffffff1681526020019081526020015f20600301805490508110156107de5785805190602001205f808381526020019081526020015f206002016040516106b991906120a2565b6040518091039020036107d1575f808281526020019081526020015f206003015f9054906101000a900473ffffffffffffffffffffffffffffffffffffffff1693505f808281526020019081526020015f206004015f9054906101000a900473ffffffffffffffffffffffffffffffffffffffff1692505f808281526020019081526020015f20600101805461074e90611fd6565b80601f016020809104026020016040519081016040528092919081815260200182805461077a90611fd6565b80156107c55780601f1061079c576101008083540402835291602001916107c5565b820191905f5260205f20905b8154815290600101906020018083116107a857829003601f168201915b505050505091506107de565b8080600101915050610646565b509250925092565b5f60605f80843373ffffffffffffffffffffffffffffffffffffffff165f808381526020019081526020015f206003015f9054906101000a900473ffffffffffffffffffffffffffffffffffffffff1673ffffffffffffffffffffffffffffffffffffffff1614806108b557503373ffffffffffffffffffffffffffffffffffffffff165f808381526020019081526020015f206004015f9054906101000a900473ffffffffffffffffffffffffffffffffffffffff1673ffffffffffffffffffffffffffffffffffffffff16145b806108c657506108c53382611645565b5b610905576040517f08c379a00000000000000000000000000000000000000000000000000000000081526004016108fc90612128565b60405180910390fd5b5f805f8881526020019081526020015f209050805f0154955080600101805461092d90611fd6565b80601f016020809104026020016040519081016040528092919081815260200182805461095990611fd6565b80156109a45780601f1061097b576101008083540402835291602001916109a4565b820191905f5260205f20905b81548152906001019060200180831161098757829003601f168201915b50505050509450806003015f9054906101000a900473ffffffffffffffffffffffffffffffffffffffff169350806004015f9054906101000a900473ffffffffffffffffffffffffffffffffffffffff16925050509193509193565b5f73ffffffffffffffffffffffffffffffffffffffff1660015f3373ffffffffffffffffffffffffffffffffffffffff1673ffffffffffffffffffffffffffffffffffffffff1681526020019081526020015f205f015f9054906101000a900473ffffffffffffffffffffffffffffffffffffffff1673ffffffffffffffffffffffffffffffffffffffff1614610acc576040517f08c379a0000000000000000000000000000000000000000000000000000000008152600401610ac390612190565b60405180910390fd5b5f60015f3373ffffffffffffffffffffffffffffffffffffffff1673ffffffffffffffffffffffffffffffffffffffff1681526020019081526020015f20905033815f015f6101000a81548173ffffffffffffffffffffffffffffffffffffffff021916908373ffffffffffffffffffffffffffffffffffffffff16021790555082816001019081610b5e919061234b565b5081816002015f6101000a81548160ff0219169083151502179055503373ffffffffffffffffffffffffffffffffffffffff167f7cff5daa5da88efbfb7faed0f4447f1f0abca8a7fd629cd317eed1f28df3603c8484604051610bc2929190611960565b60405180910390a2505050565b60015f3373ffffffffffffffffffffffffffffffffffffffff1673ffffffffffffffffffffffffffffffffffffffff1681526020019081526020015f206002015f9054906101000a900460ff16610c5b576040517f08c379a0000000000000000000000000000000000000000000000000000000008152600401610c529061248a565b60405180910390fd5b5f4233604051602001610c6f92919061250d565b604051602081830303815290604052805190602001205f1c90505f805f8381526020019081526020015f20905081815f018190555083816001019081610cb5919061234b565b5082816002019081610cc7919061234b565b5033816003015f6101000a81548173ffffffffffffffffffffffffffffffffffffffff021916908373ffffffffffffffffffffffffffffffffffffffff16021790555060015f3373ffffffffffffffffffffffffffffffffffffffff1673ffffffffffffffffffffffffffffffffffffffff1681526020019081526020015f2060030182908060018154018082558091505060019003905f5260205f20015f90919091909150553373ffffffffffffffffffffffffffffffffffffffff16827f5f0a17619d345853660d0544e8bab0797520ac2c4e6164ea0209a662418ddbfe86604051610db59190612538565b60405180910390a350505050565b813373ffffffffffffffffffffffffffffffffffffffff165f808381526020019081526020015f206003015f9054906101000a900473ffffffffffffffffffffffffffffffffffffffff1673ffffffffffffffffffffffffffffffffffffffff1614610e64576040517f08c379a0000000000000000000000000000000000000000000000000000000008152600401610e5b906125c8565b60405180910390fd5b825f73ffffffffffffffffffffffffffffffffffffffff165f808381526020019081526020015f206004015f9054906101000a900473ffffffffffffffffffffffffffffffffffffffff1673ffffffffffffffffffffffffffffffffffffffff1614610f05576040517f08c379a0000000000000000000000000000000000000000000000000000000008152600401610efc90612630565b60405180910390fd5b60015f8473ffffffffffffffffffffffffffffffffffffffff1673ffffffffffffffffffffffffffffffffffffffff1681526020019081526020015f2060030184908060018154018082558091505060019003905f5260205f20015f9091909190915055825f808681526020019081526020015f206004015f6101000a81548173ffffffffffffffffffffffffffffffffffffffff021916908373ffffffffffffffffffffffffffffffffffffffff1602179055508273ffffffffffffffffffffffffffffffffffffffff163373ffffffffffffffffffffffffffffffffffffffff16857f264a2fcff58f980486245f7d5ca8bb277eda06b4af67e6776dec93e02faf78a060405160405180910390a450505050565b813373ffffffffffffffffffffffffffffffffffffffff165f808381526020019081526020015f206004015f9054906101000a900473ffffffffffffffffffffffffffffffffffffffff1673ffffffffffffffffffffffffffffffffffffffff16146110bc576040517f08c379a00000000000000000000000000000000000000000000000000000000081526004016110b390611f23565b60405180910390fd5b5f5b5f808581526020019081526020015f206005018054905081101561129b578273ffffffffffffffffffffffffffffffffffffffff165f808681526020019081526020015f2060050182815481106111185761111761264e565b5b905f5260205f20015f9054906101000a900473ffffffffffffffffffffffffffffffffffffffff1673ffffffffffffffffffffffffffffffffffffffff160361128e575f808581526020019081526020015f2060050160015f808781526020019081526020015f206005018054905061119191906126a8565b815481106111a2576111a161264e565b5b905f5260205f20015f9054906101000a900473ffffffffffffffffffffffffffffffffffffffff165f808681526020019081526020015f2060050182815481106111ef576111ee61264e565b5b905f5260205f20015f6101000a81548173ffffffffffffffffffffffffffffffffffffffff021916908373ffffffffffffffffffffffffffffffffffffffff1602179055505f808581526020019081526020015f20600501805480611257576112566126db565b5b600190038181905f5260205f20015f6101000a81549073ffffffffffffffffffffffffffffffffffffffff0219169055905561129b565b80806001019150506110be565b50505050565b60605f60015f3373ffffffffffffffffffffffffffffffffffffffff1673ffffffffffffffffffffffffffffffffffffffff1681526020019081526020015f2060030180548060200260200160405190810160405280929190818152602001828054801561132c57602002820191905f5260205f20905b815481526020019060010190808311611318575b505050505090505f815167ffffffffffffffff81111561134f5761134e6119fe565b5b60405190808252806020026020018201604052801561138857816020015b61137561170a565b81526020019060019003908161136d5790505b5090505f5b825181101561163c575f808483815181106113ab576113aa61264e565b5b602002602001015181526020019081526020015f205f01548282815181106113d6576113d561264e565b5b60200260200101515f0181815250505f808483815181106113fa576113f961264e565b5b602002602001015181526020019081526020015f20600101805461141d90611fd6565b80601f016020809104026020016040519081016040528092919081815260200182805461144990611fd6565b80156114945780601f1061146b57610100808354040283529160200191611494565b820191905f5260205f20905b81548152906001019060200180831161147757829003601f168201915b50505050508282815181106114ac576114ab61264e565b5b6020026020010151602001819052505f808483815181106114d0576114cf61264e565b5b602002602001015181526020019081526020015f206004015f9054906101000a900473ffffffffffffffffffffffffffffffffffffffff1682828151811061151b5761151a61264e565b5b60200260200101516060019073ffffffffffffffffffffffffffffffffffffffff16908173ffffffffffffffffffffffffffffffffffffffff16815250505f8084838151811061156e5761156d61264e565b5b602002602001015181526020019081526020015f20600201805461159190611fd6565b80601f01602080910402602001604051908101604052809291908181526020018280546115bd90611fd6565b80156116085780601f106115df57610100808354040283529160200191611608565b820191905f5260205f20905b8154815290600101906020018083116115eb57829003601f168201915b50505050508282815181106116205761161f61264e565b5b602002602001015160400181905250808060010191505061138d565b50809250505090565b5f805f90505b5f808481526020019081526020015f20600501805490508110156116ff578373ffffffffffffffffffffffffffffffffffffffff165f808581526020019081526020015f2060050182815481106116a5576116a461264e565b5b905f5260205f20015f9054906101000a900473ffffffffffffffffffffffffffffffffffffffff1673ffffffffffffffffffffffffffffffffffffffff16036116f2576001915050611704565b808060010191505061164b565b505f90505b92915050565b60405180608001604052805f815260200160608152602001606081526020015f73ffffffffffffffffffffffffffffffffffffffff1681525090565b5f604051905090565b5f80fd5b5f80fd5b5f819050919050565b61176981611757565b8114611773575f80fd5b50565b5f8135905061178481611760565b92915050565b5f6020828403121561179f5761179e61174f565b5b5f6117ac84828501611776565b91505092915050565b5f81519050919050565b5f82825260208201905092915050565b5f819050602082019050919050565b5f73ffffffffffffffffffffffffffffffffffffffff82169050919050565b5f611807826117de565b9050919050565b611817816117fd565b82525050565b5f611828838361180e565b60208301905092915050565b5f602082019050919050565b5f61184a826117b5565b61185481856117bf565b935061185f836117cf565b805f5b8381101561188f578151611876888261181d565b975061188183611834565b925050600181019050611862565b5085935050505092915050565b5f6020820190508181035f8301526118b48184611840565b905092915050565b5f81519050919050565b5f82825260208201905092915050565b5f5b838110156118f35780820151818401526020810190506118d8565b5f8484015250505050565b5f601f19601f8301169050919050565b5f611918826118bc565b61192281856118c6565b93506119328185602086016118d6565b61193b816118fe565b840191505092915050565b5f8115159050919050565b61195a81611946565b82525050565b5f6040820190508181035f830152611978818561190e565b90506119876020830184611951565b9392505050565b611997816117fd565b81146119a1575f80fd5b50565b5f813590506119b28161198e565b92915050565b5f80604083850312156119ce576119cd61174f565b5b5f6119db85828601611776565b92505060206119ec858286016119a4565b9150509250929050565b5f80fd5b5f80fd5b7f4e487b71000000000000000000000000000000000000000000000000000000005f52604160045260245ffd5b611a34826118fe565b810181811067ffffffffffffffff82111715611a5357611a526119fe565b5b80604052505050565b5f611a65611746565b9050611a718282611a2b565b919050565b5f67ffffffffffffffff821115611a9057611a8f6119fe565b5b611a99826118fe565b9050602081019050919050565b828183375f83830152505050565b5f611ac6611ac184611a76565b611a5c565b905082815260208101848484011115611ae257611ae16119fa565b5b611aed848285611aa6565b509392505050565b5f82601f830112611b0957611b086119f6565b5b8135611b19848260208601611ab4565b91505092915050565b5f8060408385031215611b3857611b3761174f565b5b5f83013567ffffffffffffffff811115611b5557611b54611753565b5b611b6185828601611af5565b9250506020611b72858286016119a4565b9150509250929050565b611b85816117fd565b82525050565b5f606082019050611b9e5f830186611b7c565b611bab6020830185611b7c565b8181036040830152611bbd818461190e565b9050949350505050565b611bd081611757565b82525050565b5f608082019050611be95f830187611bc7565b8181036020830152611bfb818661190e565b9050611c0a6040830185611b7c565b611c176060830184611b7c565b95945050505050565b611c2981611946565b8114611c33575f80fd5b50565b5f81359050611c4481611c20565b92915050565b5f8060408385031215611c6057611c5f61174f565b5b5f83013567ffffffffffffffff811115611c7d57611c7c611753565b5b611c8985828601611af5565b9250506020611c9a85828601611c36565b9150509250929050565b5f8060408385031215611cba57611cb961174f565b5b5f83013567ffffffffffffffff811115611cd757611cd6611753565b5b611ce385828601611af5565b925050602083013567ffffffffffffffff811115611d0457611d03611753565b5b611d1085828601611af5565b9150509250929050565b5f81519050919050565b5f82825260208201905092915050565b5f819050602082019050919050565b611d4c81611757565b82525050565b5f82825260208201905092915050565b5f611d6c826118bc565b611d768185611d52565b9350611d868185602086016118d6565b611d8f816118fe565b840191505092915050565b5f608083015f830151611daf5f860182611d43565b5060208301518482036020860152611dc78282611d62565b91505060408301518482036040860152611de18282611d62565b9150506060830151611df6606086018261180e565b508091505092915050565b5f611e0c8383611d9a565b905092915050565b5f602082019050919050565b5f611e2a82611d1a565b611e348185611d24565b935083602082028501611e4685611d34565b805f5b85811015611e815784840389528151611e628582611e01565b9450611e6d83611e14565b925060208a01995050600181019050611e49565b50829750879550505050505092915050565b5f6020820190508181035f830152611eab8184611e20565b905092915050565b7f4f6e6c792074686520726563697069656e742063616e20706572666f726d20745f8201527f68697320616374696f6e00000000000000000000000000000000000000000000602082015250565b5f611f0d602a836118c6565b9150611f1882611eb3565b604082019050919050565b5f6020820190508181035f830152611f3a81611f01565b9050919050565b7f55736572206e6f742072656769737465726564000000000000000000000000005f82015250565b5f611f756013836118c6565b9150611f8082611f41565b602082019050919050565b5f6020820190508181035f830152611fa281611f69565b9050919050565b7f4e487b71000000000000000000000000000000000000000000000000000000005f52602260045260245ffd5b5f6002820490506001821680611fed57607f821691505b60208210810361200057611fff611fa9565b5b50919050565b5f81905092915050565b5f819050815f5260205f209050919050565b5f815461202e81611fd6565b6120388186612006565b9450600182165f8114612052576001811461206757612099565b60ff1983168652811515820286019350612099565b61207085612010565b5f5b8381101561209157815481890152600182019150602081019050612072565b838801955050505b50505092915050565b5f6120ad8284612022565b915081905092915050565b7f596f7520646f206e6f7420686176652061636365737320746f207468697320645f8201527f6f63756d656e7400000000000000000000000000000000000000000000000000602082015250565b5f6121126027836118c6565b915061211d826120b8565b604082019050919050565b5f6020820190508181035f83015261213f81612106565b9050919050565b7f5573657220616c726561647920657869737473000000000000000000000000005f82015250565b5f61217a6013836118c6565b915061218582612146565b602082019050919050565b5f6020820190508181035f8301526121a78161216e565b9050919050565b5f819050815f5260205f209050919050565b5f6020601f8301049050919050565b5f82821b905092915050565b5f6008830261220a7fffffffffffffffffffffffffffffffffffffffffffffffffffffffffffffffff826121cf565b61221486836121cf565b95508019841693508086168417925050509392505050565b5f819050919050565b5f61224f61224a61224584611757565b61222c565b611757565b9050919050565b5f819050919050565b61226883612235565b61227c61227482612256565b8484546121db565b825550505050565b5f90565b612290612284565b61229b81848461225f565b505050565b5b818110156122be576122b35f82612288565b6001810190506122a1565b5050565b601f821115612303576122d4816121ae565b6122dd846121c0565b810160208510156122ec578190505b6123006122f8856121c0565b8301826122a0565b50505b505050565b5f82821c905092915050565b5f6123235f1984600802612308565b1980831691505092915050565b5f61233b8383612314565b9150826002028217905092915050565b612354826118bc565b67ffffffffffffffff81111561236d5761236c6119fe565b5b6123778254611fd6565b6123828282856122c2565b5f60209050601f8311600181146123b3575f84156123a1578287015190505b6123ab8582612330565b865550612412565b601f1984166123c1866121ae565b5f5b828110156123e8578489015182556001820191506020850194506020810190506123c3565b868310156124055784890151612401601f891682612314565b8355505b6001600288020188555050505b505050505050565b7f4f6e6c79206f7267616e697a6174696f6e732063616e20697373756520646f635f8201527f756d656e74730000000000000000000000000000000000000000000000000000602082015250565b5f6124746026836118c6565b915061247f8261241a565b604082019050919050565b5f6020820190508181035f8301526124a181612468565b9050919050565b5f819050919050565b6124c26124bd82611757565b6124a8565b82525050565b5f8160601b9050919050565b5f6124de826124c8565b9050919050565b5f6124ef826124d4565b9050919050565b612507612502826117fd565b6124e5565b82525050565b5f61251882856124b1565b60208201915061252882846124f6565b6014820191508190509392505050565b5f6020820190508181035f830152612550818461190e565b905092915050565b7f4f6e6c7920746865206973737565722063616e20706572666f726d20746869735f8201527f20616374696f6e00000000000000000000000000000000000000000000000000602082015250565b5f6125b26027836118c6565b91506125bd82612558565b604082019050919050565b5f6020820190508181035f8301526125df816125a6565b9050919050565b7f5468697320646f63756d656e7420697320616c726561647920697373756564005f82015250565b5f61261a601f836118c6565b9150612625826125e6565b602082019050919050565b5f6020820190508181035f8301526126478161260e565b9050919050565b7f4e487b71000000000000000000000000000000000000000000000000000000005f52603260045260245ffd5b7f4e487b71000000000000000000000000000000000000000000000000000000005f52601160045260245ffd5b5f6126b282611757565b91506126bd83611757565b92508282039050818111156126d5576126d461267b565b5b92915050565b7f4e487b71000000000000000000000000000000000000000000000000000000005f52603160045260245ffdfea2646970667358221220d38ab0a1febe1c0fa5b9b4faa12df98eaae385997f4d3b0bfd4239fd3747a8ad64736f6c63430008160033",
  "linkReferences": {},
  "deployedLinkReferences": {}
}