{
  "_format": "hh-sol-artifact-1",
  "contractName": "DocManager",
  "sourceName": "contracts/DocManager.sol",
  "abi": [
    {
      "inputs": [
        {
          "internalType": "string",
          "name": "_title",
          "type": "string"
        },
        {
          "internalType": "string",
          "name": "_content",
          "type": "string"
        },
        {
          "internalType": "string",
          "name": "_contentId",
          "type": "string"
        }
      ],
      "name": "createDocument",
      "outputs": [],
      "stateMutability": "nonpayable",
      "type": "function"
    },
    {
      "inputs": [
        {
          "internalType": "string",
          "name": "_username",
          "type": "string"
        },
        {
          "internalType": "bool",
          "name": "_isOrganization",
          "type": "bool"
        }
      ],
      "name": "createUser",
      "outputs": [],
      "stateMutability": "nonpayable",
      "type": "function"
    },
    {
      "inputs": [
        {
          "internalType": "uint256",
          "name": "_docId",
          "type": "uint256"
        }
      ],
      "name": "deleteDocument",
      "outputs": [],
      "stateMutability": "nonpayable",
      "type": "function"
    },
    {
      "inputs": [
        {
          "internalType": "uint256",
          "name": "",
          "type": "uint256"
        }
      ],
      "name": "documents",
      "outputs": [
        {
          "internalType": "uint256",
          "name": "docId",
          "type": "uint256"
        },
        {
          "internalType": "string",
          "name": "title",
          "type": "string"
        },
        {
          "internalType": "string",
          "name": "content",
          "type": "string"
        },
        {
          "internalType": "string",
          "name": "contentId",
          "type": "string"
        },
        {
          "internalType": "address",
          "name": "issuer",
          "type": "address"
        }
      ],
      "stateMutability": "view",
      "type": "function"
    },
    {
      "inputs": [],
      "name": "getMyDocs",
      "outputs": [
        {
          "internalType": "uint256[]",
          "name": "",
          "type": "uint256[]"
        }
      ],
      "stateMutability": "view",
      "type": "function"
    },
    {
      "inputs": [
        {
          "internalType": "uint256",
          "name": "_docId",
          "type": "uint256"
        },
        {
          "internalType": "address",
          "name": "_user",
          "type": "address"
        }
      ],
      "name": "grantAccess",
      "outputs": [],
      "stateMutability": "nonpayable",
      "type": "function"
    },
    {
      "inputs": [
        {
          "internalType": "uint256",
          "name": "_docId",
          "type": "uint256"
        },
        {
          "internalType": "address",
          "name": "_user",
          "type": "address"
        }
      ],
      "name": "removeAccess",
      "outputs": [],
      "stateMutability": "nonpayable",
      "type": "function"
    },
    {
      "inputs": [
        {
          "internalType": "address",
          "name": "",
          "type": "address"
        }
      ],
      "name": "users",
      "outputs": [
        {
          "internalType": "address",
          "name": "userAddress",
          "type": "address"
        },
        {
          "internalType": "string",
          "name": "username",
          "type": "string"
        },
        {
          "internalType": "bool",
          "name": "isOrganization",
          "type": "bool"
        }
      ],
      "stateMutability": "view",
      "type": "function"
    },
    {
      "inputs": [
        {
          "internalType": "uint256",
          "name": "_docId",
          "type": "uint256"
        }
      ],
      "name": "verify",
      "outputs": [
        {
          "components": [
            {
              "internalType": "uint256",
              "name": "docId",
              "type": "uint256"
            },
            {
              "internalType": "string",
              "name": "title",
              "type": "string"
            },
            {
              "internalType": "string",
              "name": "content",
              "type": "string"
            },
            {
              "internalType": "string",
              "name": "contentId",
              "type": "string"
            },
            {
              "internalType": "address",
              "name": "issuer",
              "type": "address"
            }
          ],
          "internalType": "struct DocManager.Document",
          "name": "ret",
          "type": "tuple"
        }
      ],
      "stateMutability": "view",
      "type": "function"
    }
  ],
  "bytecode": "0x608060405234801561001057600080fd5b50611d66806100206000396000f3fe608060405234801561001057600080fd5b50600436106100935760003560e01c8063a0fb149711610066578063a0fb14971461011c578063a87430ba14610138578063c2ed2b051461016a578063d33781a01461019e578063f30aa777146101ba57610093565b80635ec438251461009857806365dd152c146100b457806386584e27146100d05780638753367f146100ec575b600080fd5b6100b260048036038101906100ad919061136b565b6101d8565b005b6100ce60048036038101906100c991906114a6565b61034b565b005b6100ea60048036038101906100e5919061151e565b61045d565b005b6101066004803603810190610101919061157a565b610697565b60405161011391906116d1565b60405180910390f35b6101366004803603810190610131919061157a565b6108d9565b005b610152600480360381019061014d91906116f3565b610a84565b60405161016193929190611788565b60405180910390f35b610184600480360381019061017f919061157a565b610b63565b6040516101959594939291906117d5565b60405180910390f35b6101b860048036038101906101b391906114a6565b610d51565b005b6101c2611004565b6040516101cf91906118ec565b60405180910390f35b600160003373ffffffffffffffffffffffffffffffffffffffff1673ffffffffffffffffffffffffffffffffffffffff16815260200190815260200160002060020160009054906101000a900460ff16610267576040517f08c379a000000000000000000000000000000000000000000000000000000000815260040161025e90611980565b60405180910390fd5b6000423360405160200161027c929190611a09565b6040516020818303038152906040528051906020012060001c905060008060008381526020019081526020016000209050818160000181905550848160010190805190602001906102ce92919061109c565b50838160020190805190602001906102e792919061109c565b508281600301908051906020019061030092919061109c565b50338160040160006101000a81548173ffffffffffffffffffffffffffffffffffffffff021916908373ffffffffffffffffffffffffffffffffffffffff1602179055505050505050565b813373ffffffffffffffffffffffffffffffffffffffff1660008083815260200190815260200160002060040160009054906101000a900473ffffffffffffffffffffffffffffffffffffffff1673ffffffffffffffffffffffffffffffffffffffff16146103ef576040517f08c379a00000000000000000000000000000000000000000000000000000000081526004016103e690611aa7565b60405180910390fd5b600160008373ffffffffffffffffffffffffffffffffffffffff1673ffffffffffffffffffffffffffffffffffffffff168152602001908152602001600020600301839080600181540180825580915050600190039060005260206000200160009091909190915055505050565b600073ffffffffffffffffffffffffffffffffffffffff16600160003373ffffffffffffffffffffffffffffffffffffffff1673ffffffffffffffffffffffffffffffffffffffff16815260200190815260200160002060000160009054906101000a900473ffffffffffffffffffffffffffffffffffffffff1673ffffffffffffffffffffffffffffffffffffffff161461052e576040517f08c379a000000000000000000000000000000000000000000000000000000000815260040161052590611b13565b60405180910390fd5b60405180608001604052803373ffffffffffffffffffffffffffffffffffffffff1681526020018381526020018215158152602001600a67ffffffffffffffff81111561057e5761057d611240565b5b6040519080825280602002602001820160405280156105ac5781602001602082028036833780820191505090505b50815250600160003373ffffffffffffffffffffffffffffffffffffffff1673ffffffffffffffffffffffffffffffffffffffff16815260200190815260200160002060008201518160000160006101000a81548173ffffffffffffffffffffffffffffffffffffffff021916908373ffffffffffffffffffffffffffffffffffffffff160217905550602082015181600101908051906020019061065292919061109c565b5060408201518160020160006101000a81548160ff021916908315150217905550606082015181600301908051906020019061068f929190611122565b509050505050565b61069f61116f565b6000808381526020019081526020016000206040518060a0016040529081600082015481526020016001820180546106d690611b62565b80601f016020809104026020016040519081016040528092919081815260200182805461070290611b62565b801561074f5780601f106107245761010080835404028352916020019161074f565b820191906000526020600020905b81548152906001019060200180831161073257829003601f168201915b5050505050815260200160028201805461076890611b62565b80601f016020809104026020016040519081016040528092919081815260200182805461079490611b62565b80156107e15780601f106107b6576101008083540402835291602001916107e1565b820191906000526020600020905b8154815290600101906020018083116107c457829003601f168201915b505050505081526020016003820180546107fa90611b62565b80601f016020809104026020016040519081016040528092919081815260200182805461082690611b62565b80156108735780601f1061084857610100808354040283529160200191610873565b820191906000526020600020905b81548152906001019060200180831161085657829003601f168201915b505050505081526020016004820160009054906101000a900473ffffffffffffffffffffffffffffffffffffffff1673ffffffffffffffffffffffffffffffffffffffff1673ffffffffffffffffffffffffffffffffffffffff16815250509050919050565b600160003373ffffffffffffffffffffffffffffffffffffffff1673ffffffffffffffffffffffffffffffffffffffff16815260200190815260200160002060020160009054906101000a900460ff16610968576040517f08c379a000000000000000000000000000000000000000000000000000000000815260040161095f90611c06565b60405180910390fd5b803373ffffffffffffffffffffffffffffffffffffffff1660008083815260200190815260200160002060040160009054906101000a900473ffffffffffffffffffffffffffffffffffffffff1673ffffffffffffffffffffffffffffffffffffffff1614610a0c576040517f08c379a0000000000000000000000000000000000000000000000000000000008152600401610a0390611aa7565b60405180910390fd5b600080838152602001908152602001600020600080820160009055600182016000610a3791906111b4565b600282016000610a4791906111b4565b600382016000610a5791906111b4565b6004820160006101000a81549073ffffffffffffffffffffffffffffffffffffffff021916905550505050565b60016020528060005260406000206000915090508060000160009054906101000a900473ffffffffffffffffffffffffffffffffffffffff1690806001018054610acd90611b62565b80601f0160208091040260200160405190810160405280929190818152602001828054610af990611b62565b8015610b465780601f10610b1b57610100808354040283529160200191610b46565b820191906000526020600020905b815481529060010190602001808311610b2957829003601f168201915b5050505050908060020160009054906101000a900460ff16905083565b6000602052806000526040600020600091509050806000015490806001018054610b8c90611b62565b80601f0160208091040260200160405190810160405280929190818152602001828054610bb890611b62565b8015610c055780601f10610bda57610100808354040283529160200191610c05565b820191906000526020600020905b815481529060010190602001808311610be857829003601f168201915b505050505090806002018054610c1a90611b62565b80601f0160208091040260200160405190810160405280929190818152602001828054610c4690611b62565b8015610c935780601f10610c6857610100808354040283529160200191610c93565b820191906000526020600020905b815481529060010190602001808311610c7657829003601f168201915b505050505090806003018054610ca890611b62565b80601f0160208091040260200160405190810160405280929190818152602001828054610cd490611b62565b8015610d215780601f10610cf657610100808354040283529160200191610d21565b820191906000526020600020905b815481529060010190602001808311610d0457829003601f168201915b5050505050908060040160009054906101000a900473ffffffffffffffffffffffffffffffffffffffff16905085565b813373ffffffffffffffffffffffffffffffffffffffff1660008083815260200190815260200160002060040160009054906101000a900473ffffffffffffffffffffffffffffffffffffffff1673ffffffffffffffffffffffffffffffffffffffff1614610df5576040517f08c379a0000000000000000000000000000000000000000000000000000000008152600401610dec90611aa7565b60405180910390fd5b6000600160008473ffffffffffffffffffffffffffffffffffffffff1673ffffffffffffffffffffffffffffffffffffffff16815260200190815260200160002060030180549050905060005b81811015610ffd5784600160008673ffffffffffffffffffffffffffffffffffffffff1673ffffffffffffffffffffffffffffffffffffffff1681526020019081526020016000206003018281548110610e9f57610e9e611c26565b5b90600052602060002001541415610fea57600160008573ffffffffffffffffffffffffffffffffffffffff1673ffffffffffffffffffffffffffffffffffffffff168152602001908152602001600020600301600183610eff9190611c84565b81548110610f1057610f0f611c26565b5b9060005260206000200154600160008673ffffffffffffffffffffffffffffffffffffffff1673ffffffffffffffffffffffffffffffffffffffff1681526020019081526020016000206003018281548110610f6f57610f6e611c26565b5b9060005260206000200181905550600160008573ffffffffffffffffffffffffffffffffffffffff1673ffffffffffffffffffffffffffffffffffffffff168152602001908152602001600020600301805480610fcf57610fce611cb8565b5b60019003818190600052602060002001600090559055610ffd565b8080610ff590611ce7565b915050610e42565b5050505050565b6060600160003373ffffffffffffffffffffffffffffffffffffffff1673ffffffffffffffffffffffffffffffffffffffff16815260200190815260200160002060030180548060200260200160405190810160405280929190818152602001828054801561109257602002820191906000526020600020905b81548152602001906001019080831161107e575b5050505050905090565b8280546110a890611b62565b90600052602060002090601f0160209004810192826110ca5760008555611111565b82601f106110e357805160ff1916838001178555611111565b82800160010185558215611111579182015b828111156111105782518255916020019190600101906110f5565b5b50905061111e91906111f4565b5090565b82805482825590600052602060002090810192821561115e579160200282015b8281111561115d578251825591602001919060010190611142565b5b50905061116b91906111f4565b5090565b6040518060a0016040528060008152602001606081526020016060815260200160608152602001600073ffffffffffffffffffffffffffffffffffffffff1681525090565b5080546111c090611b62565b6000825580601f106111d257506111f1565b601f0160209004906000526020600020908101906111f091906111f4565b5b50565b5b8082111561120d5760008160009055506001016111f5565b5090565b6000604051905090565b600080fd5b600080fd5b600080fd5b600080fd5b6000601f19601f8301169050919050565b7f4e487b7100000000000000000000000000000000000000000000000000000000600052604160045260246000fd5b6112788261122f565b810181811067ffffffffffffffff8211171561129757611296611240565b5b80604052505050565b60006112aa611211565b90506112b6828261126f565b919050565b600067ffffffffffffffff8211156112d6576112d5611240565b5b6112df8261122f565b9050602081019050919050565b82818337600083830152505050565b600061130e611309846112bb565b6112a0565b90508281526020810184848401111561132a5761132961122a565b5b6113358482856112ec565b509392505050565b600082601f83011261135257611351611225565b5b81356113628482602086016112fb565b91505092915050565b6000806000606084860312156113845761138361121b565b5b600084013567ffffffffffffffff8111156113a2576113a1611220565b5b6113ae8682870161133d565b935050602084013567ffffffffffffffff8111156113cf576113ce611220565b5b6113db8682870161133d565b925050604084013567ffffffffffffffff8111156113fc576113fb611220565b5b6114088682870161133d565b9150509250925092565b6000819050919050565b61142581611412565b811461143057600080fd5b50565b6000813590506114428161141c565b92915050565b600073ffffffffffffffffffffffffffffffffffffffff82169050919050565b600061147382611448565b9050919050565b61148381611468565b811461148e57600080fd5b50565b6000813590506114a08161147a565b92915050565b600080604083850312156114bd576114bc61121b565b5b60006114cb85828601611433565b92505060206114dc85828601611491565b9150509250929050565b60008115159050919050565b6114fb816114e6565b811461150657600080fd5b50565b600081359050611518816114f2565b92915050565b600080604083850312156115355761153461121b565b5b600083013567ffffffffffffffff81111561155357611552611220565b5b61155f8582860161133d565b925050602061157085828601611509565b9150509250929050565b6000602082840312156115905761158f61121b565b5b600061159e84828501611433565b91505092915050565b6115b081611412565b82525050565b600081519050919050565b600082825260208201905092915050565b60005b838110156115f05780820151818401526020810190506115d5565b838111156115ff576000848401525b50505050565b6000611610826115b6565b61161a81856115c1565b935061162a8185602086016115d2565b6116338161122f565b840191505092915050565b61164781611468565b82525050565b600060a08301600083015161166560008601826115a7565b506020830151848203602086015261167d8282611605565b915050604083015184820360408601526116978282611605565b915050606083015184820360608601526116b18282611605565b91505060808301516116c6608086018261163e565b508091505092915050565b600060208201905081810360008301526116eb818461164d565b905092915050565b6000602082840312156117095761170861121b565b5b600061171784828501611491565b91505092915050565b61172981611468565b82525050565b600082825260208201905092915050565b600061174b826115b6565b611755818561172f565b93506117658185602086016115d2565b61176e8161122f565b840191505092915050565b611782816114e6565b82525050565b600060608201905061179d6000830186611720565b81810360208301526117af8185611740565b90506117be6040830184611779565b949350505050565b6117cf81611412565b82525050565b600060a0820190506117ea60008301886117c6565b81810360208301526117fc8187611740565b905081810360408301526118108186611740565b905081810360608301526118248185611740565b90506118336080830184611720565b9695505050505050565b600081519050919050565b600082825260208201905092915050565b6000819050602082019050919050565b600061187583836115a7565b60208301905092915050565b6000602082019050919050565b60006118998261183d565b6118a38185611848565b93506118ae83611859565b8060005b838110156118df5781516118c68882611869565b97506118d183611881565b9250506001810190506118b2565b5085935050505092915050565b60006020820190508181036000830152611906818461188e565b905092915050565b7f4f6e6c79206f7267616e697a6174696f6e732063616e20697373756520646f6360008201527f756d656e74730000000000000000000000000000000000000000000000000000602082015250565b600061196a60268361172f565b91506119758261190e565b604082019050919050565b600060208201905081810360008301526119998161195d565b9050919050565b6000819050919050565b6119bb6119b682611412565b6119a0565b82525050565b60008160601b9050919050565b60006119d9826119c1565b9050919050565b60006119eb826119ce565b9050919050565b611a036119fe82611468565b6119e0565b82525050565b6000611a1582856119aa565b602082019150611a2582846119f2565b6014820191508190509392505050565b7f4f6e6c7920746865206973737565722063616e20706572666f726d207468697360008201527f20616374696f6e00000000000000000000000000000000000000000000000000602082015250565b6000611a9160278361172f565b9150611a9c82611a35565b604082019050919050565b60006020820190508181036000830152611ac081611a84565b9050919050565b7f5573657220616c72656164792065786973747300000000000000000000000000600082015250565b6000611afd60138361172f565b9150611b0882611ac7565b602082019050919050565b60006020820190508181036000830152611b2c81611af0565b9050919050565b7f4e487b7100000000000000000000000000000000000000000000000000000000600052602260045260246000fd5b60006002820490506001821680611b7a57607f821691505b60208210811415611b8e57611b8d611b33565b5b50919050565b7f4f6e6c79206f7267616e697a6174696f6e732063616e20706572666f726d207460008201527f68697320616374696f6e00000000000000000000000000000000000000000000602082015250565b6000611bf0602a8361172f565b9150611bfb82611b94565b604082019050919050565b60006020820190508181036000830152611c1f81611be3565b9050919050565b7f4e487b7100000000000000000000000000000000000000000000000000000000600052603260045260246000fd5b7f4e487b7100000000000000000000000000000000000000000000000000000000600052601160045260246000fd5b6000611c8f82611412565b9150611c9a83611412565b925082821015611cad57611cac611c55565b5b828203905092915050565b7f4e487b7100000000000000000000000000000000000000000000000000000000600052603160045260246000fd5b6000611cf282611412565b91507fffffffffffffffffffffffffffffffffffffffffffffffffffffffffffffffff821415611d2557611d24611c55565b5b60018201905091905056fea2646970667358221220e30bdb16d6d6ea3e0f595f4d2304a4bb7dca7dbe4969c0cacd1d33300cbd65ca64736f6c63430008090033",
  "linkReferences": {},
  "deployedLinkReferences": {}
}