{
  "_format": "hh-sol-artifact-1",
  "contractName": "DocManager",
  "sourceName": "contracts/DocManager.sol",
  "abi": [
    {
      "anonymous": false,
      "inputs": [
        {
          "indexed": true,
          "internalType": "uint256",
          "name": "docId",
          "type": "uint256"
        },
        {
          "indexed": true,
          "internalType": "address",
          "name": "grantedAddress",
          "type": "address"
        }
      ],
      "name": "DocumentAccessGranted",
      "type": "event"
    },
    {
      "anonymous": false,
      "inputs": [
        {
          "indexed": true,
          "internalType": "uint256",
          "name": "docId",
          "type": "uint256"
        },
        {
          "indexed": true,
          "internalType": "address",
          "name": "revokedAddress",
          "type": "address"
        }
      ],
      "name": "DocumentAccessRevoked",
      "type": "event"
    },
    {
      "anonymous": false,
      "inputs": [
        {
          "indexed": true,
          "internalType": "uint256",
          "name": "docId",
          "type": "uint256"
        },
        {
          "indexed": false,
          "internalType": "string",
          "name": "title",
          "type": "string"
        },
        {
          "indexed": true,
          "internalType": "address",
          "name": "issuer",
          "type": "address"
        }
      ],
      "name": "DocumentCreated",
      "type": "event"
    },
    {
      "anonymous": false,
      "inputs": [
        {
          "indexed": true,
          "internalType": "uint256",
          "name": "docId",
          "type": "uint256"
        },
        {
          "indexed": true,
          "internalType": "address",
          "name": "issuer",
          "type": "address"
        },
        {
          "indexed": true,
          "internalType": "address",
          "name": "issuedTo",
          "type": "address"
        }
      ],
      "name": "DocumentIssued",
      "type": "event"
    },
    {
      "anonymous": false,
      "inputs": [
        {
          "indexed": true,
          "internalType": "address",
          "name": "userAddress",
          "type": "address"
        },
        {
          "indexed": false,
          "internalType": "string",
          "name": "username",
          "type": "string"
        },
        {
          "indexed": false,
          "internalType": "bool",
          "name": "isOrganization",
          "type": "bool"
        }
      ],
      "name": "UserCreated",
      "type": "event"
    },
    {
      "inputs": [
        {
          "internalType": "string",
          "name": "_title",
          "type": "string"
        },
        {
          "internalType": "string",
          "name": "_contentId",
          "type": "string"
        }
      ],
      "name": "createDocument",
      "outputs": [],
      "stateMutability": "nonpayable",
      "type": "function"
    },
    {
      "inputs": [
        {
          "internalType": "string",
          "name": "_username",
          "type": "string"
        },
        {
          "internalType": "bool",
          "name": "_isOrganization",
          "type": "bool"
        }
      ],
      "name": "createUser",
      "outputs": [],
      "stateMutability": "nonpayable",
      "type": "function"
    },
    {
      "inputs": [
        {
          "internalType": "uint256",
          "name": "_docId",
          "type": "uint256"
        }
      ],
      "name": "getDocumentAccessList",
      "outputs": [
        {
          "internalType": "address[]",
          "name": "",
          "type": "address[]"
        }
      ],
      "stateMutability": "view",
      "type": "function"
    },
    {
      "inputs": [
        {
          "internalType": "uint256",
          "name": "_docId",
          "type": "uint256"
        }
      ],
      "name": "getDocumentDetails",
      "outputs": [
        {
          "internalType": "uint256",
          "name": "docId",
          "type": "uint256"
        },
        {
          "internalType": "string",
          "name": "title",
          "type": "string"
        },
        {
          "internalType": "address",
          "name": "issuer",
          "type": "address"
        },
        {
          "internalType": "address",
          "name": "issuedTo",
          "type": "address"
        }
      ],
      "stateMutability": "view",
      "type": "function"
    },
    {
      "inputs": [],
      "name": "getMyDocs",
      "outputs": [
        {
          "internalType": "uint256[]",
          "name": "",
          "type": "uint256[]"
        }
      ],
      "stateMutability": "view",
      "type": "function"
    },
    {
      "inputs": [
        {
          "internalType": "uint256",
          "name": "_docId",
          "type": "uint256"
        },
        {
          "internalType": "address",
          "name": "_to",
          "type": "address"
        }
      ],
      "name": "grantAccess",
      "outputs": [],
      "stateMutability": "nonpayable",
      "type": "function"
    },
    {
      "inputs": [
        {
          "internalType": "uint256",
          "name": "_docId",
          "type": "uint256"
        },
        {
          "internalType": "address",
          "name": "_user",
          "type": "address"
        }
      ],
      "name": "issue",
      "outputs": [],
      "stateMutability": "nonpayable",
      "type": "function"
    },
    {
      "inputs": [
        {
          "internalType": "uint256",
          "name": "_docId",
          "type": "uint256"
        },
        {
          "internalType": "address",
          "name": "_from",
          "type": "address"
        }
      ],
      "name": "revokeAccess",
      "outputs": [],
      "stateMutability": "nonpayable",
      "type": "function"
    },
    {
      "inputs": [
        {
          "internalType": "uint256",
          "name": "_docId",
          "type": "uint256"
        }
      ],
      "name": "verify",
      "outputs": [
        {
          "internalType": "address",
          "name": "issuedBy",
          "type": "address"
        },
        {
          "internalType": "address",
          "name": "issuedTo",
          "type": "address"
        },
        {
          "internalType": "string",
          "name": "title",
          "type": "string"
        }
      ],
      "stateMutability": "view",
      "type": "function"
    }
  ],
  "bytecode": "0x608060405234801561000f575f80fd5b50611f9a8061001d5f395ff3fe608060405234801561000f575f80fd5b5060043610610091575f3560e01c80638753367f116100645780638753367f1461013057806393ebc4c814610162578063b696a6ad1461017e578063d9a5ec1b1461019a578063f30aa777146101b657610091565b80630b6abe8b1461009557806365dd152c146100c557806380ede329146100e157806386584e2714610114575b5f80fd5b6100af60048036038101906100aa919061121c565b6101d4565b6040516100bc919061132e565b60405180910390f35b6100df60048036038101906100da9190611378565b610314565b005b6100fb60048036038101906100f6919061121c565b61046f565b60405161010b949392919061145e565b60405180910390f35b61012e60048036038101906101299190611609565b610689565b005b61014a6004803603810190610145919061121c565b610858565b60405161015993929190611663565b60405180910390f35b61017c6004803603810190610177919061169f565b610969565b005b61019860048036038101906101939190611378565b610b5d565b005b6101b460048036038101906101af9190611378565b610db5565b005b6101be61107f565b6040516101cb91906117cc565b60405180910390f35b6060813373ffffffffffffffffffffffffffffffffffffffff165f808381526020019081526020015f206004015f9054906101000a900473ffffffffffffffffffffffffffffffffffffffff1673ffffffffffffffffffffffffffffffffffffffff1614610277576040517f08c379a000000000000000000000000000000000000000000000000000000000815260040161026e9061185c565b60405180910390fd5b5f808481526020019081526020015f2060050180548060200260200160405190810160405280929190818152602001828054801561030757602002820191905f5260205f20905b815f9054906101000a900473ffffffffffffffffffffffffffffffffffffffff1673ffffffffffffffffffffffffffffffffffffffff16815260200190600101908083116102be575b5050505050915050919050565b813373ffffffffffffffffffffffffffffffffffffffff165f808381526020019081526020015f206004015f9054906101000a900473ffffffffffffffffffffffffffffffffffffffff1673ffffffffffffffffffffffffffffffffffffffff16146103b5576040517f08c379a00000000000000000000000000000000000000000000000000000000081526004016103ac9061185c565b60405180910390fd5b5f808481526020019081526020015f2060050182908060018154018082558091505060019003905f5260205f20015f9091909190916101000a81548173ffffffffffffffffffffffffffffffffffffffff021916908373ffffffffffffffffffffffffffffffffffffffff1602179055508173ffffffffffffffffffffffffffffffffffffffff16837fd91c50e8c21e68792869114f2a9f39ff547b09197b4d5ff27a57ac8055db538360405160405180910390a3505050565b5f60605f80843373ffffffffffffffffffffffffffffffffffffffff165f808381526020019081526020015f206003015f9054906101000a900473ffffffffffffffffffffffffffffffffffffffff1673ffffffffffffffffffffffffffffffffffffffff16148061053e57503373ffffffffffffffffffffffffffffffffffffffff165f808381526020019081526020015f206004015f9054906101000a900473ffffffffffffffffffffffffffffffffffffffff1673ffffffffffffffffffffffffffffffffffffffff16145b8061054f575061054e3382611113565b5b61058e576040517f08c379a0000000000000000000000000000000000000000000000000000000008152600401610585906118ea565b60405180910390fd5b5f805f8881526020019081526020015f209050805f015495508060010180546105b690611935565b80601f01602080910402602001604051908101604052809291908181526020018280546105e290611935565b801561062d5780601f106106045761010080835404028352916020019161062d565b820191905f5260205f20905b81548152906001019060200180831161061057829003601f168201915b50505050509450806003015f9054906101000a900473ffffffffffffffffffffffffffffffffffffffff169350806004015f9054906101000a900473ffffffffffffffffffffffffffffffffffffffff16925050509193509193565b5f73ffffffffffffffffffffffffffffffffffffffff1660015f3373ffffffffffffffffffffffffffffffffffffffff1673ffffffffffffffffffffffffffffffffffffffff1681526020019081526020015f205f015f9054906101000a900473ffffffffffffffffffffffffffffffffffffffff1673ffffffffffffffffffffffffffffffffffffffff1614610755576040517f08c379a000000000000000000000000000000000000000000000000000000000815260040161074c906119af565b60405180910390fd5b5f60015f3373ffffffffffffffffffffffffffffffffffffffff1673ffffffffffffffffffffffffffffffffffffffff1681526020019081526020015f20905033815f015f6101000a81548173ffffffffffffffffffffffffffffffffffffffff021916908373ffffffffffffffffffffffffffffffffffffffff160217905550828160010190816107e79190611b6a565b5081816002015f6101000a81548160ff0219169083151502179055503373ffffffffffffffffffffffffffffffffffffffff167f7cff5daa5da88efbfb7faed0f4447f1f0abca8a7fd629cd317eed1f28df3603c848460405161084b929190611c48565b60405180910390a2505050565b5f8060605f808581526020019081526020015f206003015f9054906101000a900473ffffffffffffffffffffffffffffffffffffffff1692505f808581526020019081526020015f206004015f9054906101000a900473ffffffffffffffffffffffffffffffffffffffff1691505f808581526020019081526020015f2060010180546108e490611935565b80601f016020809104026020016040519081016040528092919081815260200182805461091090611935565b801561095b5780601f106109325761010080835404028352916020019161095b565b820191905f5260205f20905b81548152906001019060200180831161093e57829003601f168201915b505050505090509193909250565b60015f3373ffffffffffffffffffffffffffffffffffffffff1673ffffffffffffffffffffffffffffffffffffffff1681526020019081526020015f206002015f9054906101000a900460ff166109f5576040517f08c379a00000000000000000000000000000000000000000000000000000000081526004016109ec90611ce6565b60405180910390fd5b5f4233604051602001610a09929190611d69565b604051602081830303815290604052805190602001205f1c90505f805f8381526020019081526020015f20905081815f018190555083816001019081610a4f9190611b6a565b5082816002019081610a619190611b6a565b5033816003015f6101000a81548173ffffffffffffffffffffffffffffffffffffffff021916908373ffffffffffffffffffffffffffffffffffffffff16021790555060015f3373ffffffffffffffffffffffffffffffffffffffff1673ffffffffffffffffffffffffffffffffffffffff1681526020019081526020015f2060030182908060018154018082558091505060019003905f5260205f20015f90919091909150553373ffffffffffffffffffffffffffffffffffffffff16827f5f0a17619d345853660d0544e8bab0797520ac2c4e6164ea0209a662418ddbfe86604051610b4f9190611d94565b60405180910390a350505050565b813373ffffffffffffffffffffffffffffffffffffffff165f808381526020019081526020015f206003015f9054906101000a900473ffffffffffffffffffffffffffffffffffffffff1673ffffffffffffffffffffffffffffffffffffffff1614610bfe576040517f08c379a0000000000000000000000000000000000000000000000000000000008152600401610bf590611e24565b60405180910390fd5b825f73ffffffffffffffffffffffffffffffffffffffff165f808381526020019081526020015f206004015f9054906101000a900473ffffffffffffffffffffffffffffffffffffffff1673ffffffffffffffffffffffffffffffffffffffff1614610c9f576040517f08c379a0000000000000000000000000000000000000000000000000000000008152600401610c9690611e8c565b60405180910390fd5b60015f8473ffffffffffffffffffffffffffffffffffffffff1673ffffffffffffffffffffffffffffffffffffffff1681526020019081526020015f2060030184908060018154018082558091505060019003905f5260205f20015f9091909190915055825f808681526020019081526020015f206004015f6101000a81548173ffffffffffffffffffffffffffffffffffffffff021916908373ffffffffffffffffffffffffffffffffffffffff1602179055508273ffffffffffffffffffffffffffffffffffffffff163373ffffffffffffffffffffffffffffffffffffffff16857f264a2fcff58f980486245f7d5ca8bb277eda06b4af67e6776dec93e02faf78a060405160405180910390a450505050565b813373ffffffffffffffffffffffffffffffffffffffff165f808381526020019081526020015f206004015f9054906101000a900473ffffffffffffffffffffffffffffffffffffffff1673ffffffffffffffffffffffffffffffffffffffff1614610e56576040517f08c379a0000000000000000000000000000000000000000000000000000000008152600401610e4d9061185c565b60405180910390fd5b5f5b5f808581526020019081526020015f2060050180549050811015611079578273ffffffffffffffffffffffffffffffffffffffff165f808681526020019081526020015f206005018281548110610eb257610eb1611eaa565b5b905f5260205f20015f9054906101000a900473ffffffffffffffffffffffffffffffffffffffff1673ffffffffffffffffffffffffffffffffffffffff160361106c575f808581526020019081526020015f2060050160015f808781526020019081526020015f2060050180549050610f2b9190611f04565b81548110610f3c57610f3b611eaa565b5b905f5260205f20015f9054906101000a900473ffffffffffffffffffffffffffffffffffffffff165f808681526020019081526020015f206005018281548110610f8957610f88611eaa565b5b905f5260205f20015f6101000a81548173ffffffffffffffffffffffffffffffffffffffff021916908373ffffffffffffffffffffffffffffffffffffffff1602179055505f808581526020019081526020015f20600501805480610ff157610ff0611f37565b5b600190038181905f5260205f20015f6101000a81549073ffffffffffffffffffffffffffffffffffffffff021916905590558273ffffffffffffffffffffffffffffffffffffffff16847fcfa6693db7bf2b76fb8370cbe67199b4775f49b876c7f656c1f385bdb677bf5960405160405180910390a3611079565b8080600101915050610e58565b50505050565b606060015f3373ffffffffffffffffffffffffffffffffffffffff1673ffffffffffffffffffffffffffffffffffffffff1681526020019081526020015f2060030180548060200260200160405190810160405280929190818152602001828054801561110957602002820191905f5260205f20905b8154815260200190600101908083116110f5575b5050505050905090565b5f805f90505b5f808481526020019081526020015f20600501805490508110156111cd578373ffffffffffffffffffffffffffffffffffffffff165f808581526020019081526020015f20600501828154811061117357611172611eaa565b5b905f5260205f20015f9054906101000a900473ffffffffffffffffffffffffffffffffffffffff1673ffffffffffffffffffffffffffffffffffffffff16036111c05760019150506111d2565b8080600101915050611119565b505f90505b92915050565b5f604051905090565b5f80fd5b5f80fd5b5f819050919050565b6111fb816111e9565b8114611205575f80fd5b50565b5f81359050611216816111f2565b92915050565b5f60208284031215611231576112306111e1565b5b5f61123e84828501611208565b91505092915050565b5f81519050919050565b5f82825260208201905092915050565b5f819050602082019050919050565b5f73ffffffffffffffffffffffffffffffffffffffff82169050919050565b5f61129982611270565b9050919050565b6112a98161128f565b82525050565b5f6112ba83836112a0565b60208301905092915050565b5f602082019050919050565b5f6112dc82611247565b6112e68185611251565b93506112f183611261565b805f5b8381101561132157815161130888826112af565b9750611313836112c6565b9250506001810190506112f4565b5085935050505092915050565b5f6020820190508181035f83015261134681846112d2565b905092915050565b6113578161128f565b8114611361575f80fd5b50565b5f813590506113728161134e565b92915050565b5f806040838503121561138e5761138d6111e1565b5b5f61139b85828601611208565b92505060206113ac85828601611364565b9150509250929050565b6113bf816111e9565b82525050565b5f81519050919050565b5f82825260208201905092915050565b5f5b838110156113fc5780820151818401526020810190506113e1565b5f8484015250505050565b5f601f19601f8301169050919050565b5f611421826113c5565b61142b81856113cf565b935061143b8185602086016113df565b61144481611407565b840191505092915050565b6114588161128f565b82525050565b5f6080820190506114715f8301876113b6565b81810360208301526114838186611417565b9050611492604083018561144f565b61149f606083018461144f565b95945050505050565b5f80fd5b5f80fd5b7f4e487b71000000000000000000000000000000000000000000000000000000005f52604160045260245ffd5b6114e682611407565b810181811067ffffffffffffffff82111715611505576115046114b0565b5b80604052505050565b5f6115176111d8565b905061152382826114dd565b919050565b5f67ffffffffffffffff821115611542576115416114b0565b5b61154b82611407565b9050602081019050919050565b828183375f83830152505050565b5f61157861157384611528565b61150e565b905082815260208101848484011115611594576115936114ac565b5b61159f848285611558565b509392505050565b5f82601f8301126115bb576115ba6114a8565b5b81356115cb848260208601611566565b91505092915050565b5f8115159050919050565b6115e8816115d4565b81146115f2575f80fd5b50565b5f81359050611603816115df565b92915050565b5f806040838503121561161f5761161e6111e1565b5b5f83013567ffffffffffffffff81111561163c5761163b6111e5565b5b611648858286016115a7565b9250506020611659858286016115f5565b9150509250929050565b5f6060820190506116765f83018661144f565b611683602083018561144f565b81810360408301526116958184611417565b9050949350505050565b5f80604083850312156116b5576116b46111e1565b5b5f83013567ffffffffffffffff8111156116d2576116d16111e5565b5b6116de858286016115a7565b925050602083013567ffffffffffffffff8111156116ff576116fe6111e5565b5b61170b858286016115a7565b9150509250929050565b5f81519050919050565b5f82825260208201905092915050565b5f819050602082019050919050565b611747816111e9565b82525050565b5f611758838361173e565b60208301905092915050565b5f602082019050919050565b5f61177a82611715565b611784818561171f565b935061178f8361172f565b805f5b838110156117bf5781516117a6888261174d565b97506117b183611764565b925050600181019050611792565b5085935050505092915050565b5f6020820190508181035f8301526117e48184611770565b905092915050565b7f4f6e6c792074686520726563697069656e742063616e20706572666f726d20745f8201527f68697320616374696f6e00000000000000000000000000000000000000000000602082015250565b5f611846602a836113cf565b9150611851826117ec565b604082019050919050565b5f6020820190508181035f8301526118738161183a565b9050919050565b7f596f7520646f206e6f7420686176652061636365737320746f207468697320645f8201527f6f63756d656e7400000000000000000000000000000000000000000000000000602082015250565b5f6118d46027836113cf565b91506118df8261187a565b604082019050919050565b5f6020820190508181035f830152611901816118c8565b9050919050565b7f4e487b71000000000000000000000000000000000000000000000000000000005f52602260045260245ffd5b5f600282049050600182168061194c57607f821691505b60208210810361195f5761195e611908565b5b50919050565b7f5573657220616c726561647920657869737473000000000000000000000000005f82015250565b5f6119996013836113cf565b91506119a482611965565b602082019050919050565b5f6020820190508181035f8301526119c68161198d565b9050919050565b5f819050815f5260205f209050919050565b5f6020601f8301049050919050565b5f82821b905092915050565b5f60088302611a297fffffffffffffffffffffffffffffffffffffffffffffffffffffffffffffffff826119ee565b611a3386836119ee565b95508019841693508086168417925050509392505050565b5f819050919050565b5f611a6e611a69611a64846111e9565b611a4b565b6111e9565b9050919050565b5f819050919050565b611a8783611a54565b611a9b611a9382611a75565b8484546119fa565b825550505050565b5f90565b611aaf611aa3565b611aba818484611a7e565b505050565b5b81811015611add57611ad25f82611aa7565b600181019050611ac0565b5050565b601f821115611b2257611af3816119cd565b611afc846119df565b81016020851015611b0b578190505b611b1f611b17856119df565b830182611abf565b50505b505050565b5f82821c905092915050565b5f611b425f1984600802611b27565b1980831691505092915050565b5f611b5a8383611b33565b9150826002028217905092915050565b611b73826113c5565b67ffffffffffffffff811115611b8c57611b8b6114b0565b5b611b968254611935565b611ba1828285611ae1565b5f60209050601f831160018114611bd2575f8415611bc0578287015190505b611bca8582611b4f565b865550611c31565b601f198416611be0866119cd565b5f5b82811015611c0757848901518255600182019150602085019450602081019050611be2565b86831015611c245784890151611c20601f891682611b33565b8355505b6001600288020188555050505b505050505050565b611c42816115d4565b82525050565b5f6040820190508181035f830152611c608185611417565b9050611c6f6020830184611c39565b9392505050565b7f4f6e6c79206f7267616e697a6174696f6e732063616e20697373756520646f635f8201527f756d656e74730000000000000000000000000000000000000000000000000000602082015250565b5f611cd06026836113cf565b9150611cdb82611c76565b604082019050919050565b5f6020820190508181035f830152611cfd81611cc4565b9050919050565b5f819050919050565b611d1e611d19826111e9565b611d04565b82525050565b5f8160601b9050919050565b5f611d3a82611d24565b9050919050565b5f611d4b82611d30565b9050919050565b611d63611d5e8261128f565b611d41565b82525050565b5f611d748285611d0d565b602082019150611d848284611d52565b6014820191508190509392505050565b5f6020820190508181035f830152611dac8184611417565b905092915050565b7f4f6e6c7920746865206973737565722063616e20706572666f726d20746869735f8201527f20616374696f6e00000000000000000000000000000000000000000000000000602082015250565b5f611e0e6027836113cf565b9150611e1982611db4565b604082019050919050565b5f6020820190508181035f830152611e3b81611e02565b9050919050565b7f5468697320646f63756d656e7420697320616c726561647920697373756564005f82015250565b5f611e76601f836113cf565b9150611e8182611e42565b602082019050919050565b5f6020820190508181035f830152611ea381611e6a565b9050919050565b7f4e487b71000000000000000000000000000000000000000000000000000000005f52603260045260245ffd5b7f4e487b71000000000000000000000000000000000000000000000000000000005f52601160045260245ffd5b5f611f0e826111e9565b9150611f19836111e9565b9250828203905081811115611f3157611f30611ed7565b5b92915050565b7f4e487b71000000000000000000000000000000000000000000000000000000005f52603160045260245ffdfea264697066735822122078d074fcfeaa3c4edd0810eb1b8370dbaa18326ae23fb3933c81498fb65d38e964736f6c63430008160033",
  "linkReferences": {},
  "deployedLinkReferences": {}
}